{
  "contractName": "SimpleStorage",
  "abi": [
    {
      "constant": true,
      "inputs": [],
      "name": "getNo",
      "outputs": [
        {
          "internalType": "uint256",
          "name": "no",
          "type": "uint256"
        }
      ],
      "payable": false,
      "stateMutability": "view",
      "type": "function"
    },
    {
      "constant": true,
      "inputs": [
        {
          "internalType": "uint256",
          "name": "id",
          "type": "uint256"
        }
      ],
      "name": "getRecordFromId",
      "outputs": [
        {
          "internalType": "string",
          "name": "record",
          "type": "string"
        }
      ],
      "payable": false,
      "stateMutability": "view",
      "type": "function"
    },
    {
      "constant": false,
      "inputs": [
        {
          "internalType": "string",
          "name": "_record",
          "type": "string"
        }
      ],
      "name": "uploadRecord",
      "outputs": [],
      "payable": false,
      "stateMutability": "nonpayable",
      "type": "function"
    }
  ],
  "bytecode": "0x60806040526000805534801561001457600080fd5b5061039b806100246000396000f3fe608060405234801561001057600080fd5b50600436106100415760003560e01c80637e2b1dc0146100465780637fb869bb146100ed5780639f0314fc146101a8575b600080fd5b6100726004803603602081101561005c57600080fd5b81019080803590602001909291905050506101c6565b6040518080602001828103825283818151815260200191508051906020019080838360005b838110156100b2578082015181840152602081019050610097565b50505050905090810190601f1680156100df5780820380516001836020036101000a031916815260200191505b509250505060405180910390f35b6101a66004803603602081101561010357600080fd5b810190808035906020019064010000000081111561012057600080fd5b82018360208201111561013257600080fd5b8035906020019184600183028401116401000000008311171561015457600080fd5b91908080601f016020809104026020016040519081016040528093929190818152602001838380828437600081840152601f19601f82011690508083019250505050505050919291929050505061027b565b005b6101b06102b8565b6040518082815260200191505060405180910390f35b6060600160008381526020019081526020016000208054600181600116156101000203166002900480601f01602080910402602001604051908101604052809291908181526020018280546001816001161561010002031660029004801561026f5780601f106102445761010080835404028352916020019161026f565b820191906000526020600020905b81548152906001019060200180831161025257829003601f168201915b50505050509050919050565b600080815480929190600101919050555080600160008054815260200190815260200160002090805190602001906102b49291906102c1565b5050565b60008054905090565b828054600181600116156101000203166002900490600052602060002090601f016020900481019282601f1061030257805160ff1916838001178555610330565b82800160010185558215610330579182015b8281111561032f578251825591602001919060010190610314565b5b50905061033d9190610341565b5090565b61036391905b8082111561035f576000816000905550600101610347565b5090565b9056fea265627a7a7231582063b5cb7483419082ed9720ac2e49801ff12d3e531050a6cb24c6454bd6b7b94f64736f6c63430005100032",
  "source": "// SPDX-License-Identifier: MIT\npragma solidity 0.5.16;\n\ncontract SimpleStorage {\n uint nonce = 0;\n\n  mapping(uint => string) Record;\n\n  function getNo() public view returns(uint no){\n      no = nonce;\n    }\n\n  function getRecordFromId(uint id) public view returns(string memory record){\n        record = Record[id];\n    }\n\n  function uploadRecord(string memory _record) public {\n        nonce++;\n        Record[nonce] = _record;     \n    }\n\n}\n",
  "sourcePath": "C:/Users/akshay/type/contracts/SimpleStorage.sol",
  "compiler": {
    "name": "solc",
    "version": "0.5.16+commit.9c3226ce.Emscripten.clang"
  },
  "schemaVersion": "3.3.3",
  "updatedAt": "2021-03-10T14:37:10.991Z",
  "networkType": "ethereum",
  "devdoc": {
    "methods": {}
  },
  "userdoc": {
    "methods": {}
  }
}